{
  "abi": [
    {
      "anonymous": false,
      "inputs": [
        {
          "indexed": false,
          "internalType": "address",
          "name": "addr",
          "type": "address"
        },
        {
          "indexed": false,
          "internalType": "uint256",
          "name": "salt",
          "type": "uint256"
        }
      ],
      "name": "Deployed",
      "type": "event"
    },
    {
      "inputs": [
        {
          "internalType": "bytes",
          "name": "bytecode",
          "type": "bytes"
        },
        {
          "internalType": "uint256",
          "name": "_salt",
          "type": "uint256"
        }
      ],
      "name": "deploy",
      "outputs": [],
      "stateMutability": "payable",
      "type": "function"
    },
    {
      "inputs": [
        {
          "internalType": "bytes",
          "name": "bytecode",
          "type": "bytes"
        },
        {
          "internalType": "uint256",
          "name": "_salt",
          "type": "uint256"
        }
      ],
      "name": "getAddress",
      "outputs": [
        {
          "internalType": "address",
          "name": "",
          "type": "address"
        }
      ],
      "stateMutability": "view",
      "type": "function"
    },
    {
      "inputs": [
        {
          "internalType": "address",
          "name": "_owner",
          "type": "address"
        },
        {
          "internalType": "uint256",
          "name": "_foo",
          "type": "uint256"
        }
      ],
      "name": "getBytecode",
      "outputs": [
        {
          "internalType": "bytes",
          "name": "",
          "type": "bytes"
        }
      ],
      "stateMutability": "pure",
      "type": "function"
    }
  ],
  "bytecode": {
    "object": "0x608060405234801561001057600080fd5b50610613806100206000396000f3fe6080604052600436106100345760003560e01c806381871cbc1461003957806394ca2cb51461006f5780639c4ae2d014610136575b600080fd5b34801561004557600080fd5b50610059610054366004610288565b61014b565b60405161006691906102f1565b60405180910390f35b34801561007b57600080fd5b5061011161008a366004610371565b8151602092830120604080517fff00000000000000000000000000000000000000000000000000000000000000818601523060601b7fffffffffffffffffffffffffffffffffffffffff0000000000000000000000001660218201526035810193909352605580840192909252805180840390920182526075909201909152805191012090565b60405173ffffffffffffffffffffffffffffffffffffffff9091168152602001610066565b610149610144366004610371565b61020f565b005b606060006040518060200161015f9061027b565b7fffffffffffffffffffffffffffffffffffffffffffffffffffffffffffffffe082820381018352601f90910116604081815273ffffffffffffffffffffffffffffffffffffffff8716602083015281018590529091508190606001604080517fffffffffffffffffffffffffffffffffffffffffffffffffffffffffffffffe0818403018152908290526101f79291602001610444565b60405160208183030381529060405291505092915050565b60008183516020850134f59050803b61022757600080fd5b6040805173ffffffffffffffffffffffffffffffffffffffff83168152602081018490527fb03c53b28e78a88e31607a27e1fa48234dce28d5d9d9ec7b295aeb02e674a1e1910160405180910390a1505050565b61016a8061047483390190565b6000806040838503121561029b57600080fd5b823573ffffffffffffffffffffffffffffffffffffffff811681146102bf57600080fd5b946020939093013593505050565b60005b838110156102e85781810151838201526020016102d0565b50506000910152565b60208152600082518060208401526103108160408501602087016102cd565b601f017fffffffffffffffffffffffffffffffffffffffffffffffffffffffffffffffe0169190910160400192915050565b7f4e487b7100000000000000000000000000000000000000000000000000000000600052604160045260246000fd5b6000806040838503121561038457600080fd5b823567ffffffffffffffff8082111561039c57600080fd5b818501915085601f8301126103b057600080fd5b8135818111156103c2576103c2610342565b604051601f82017fffffffffffffffffffffffffffffffffffffffffffffffffffffffffffffffe0908116603f0116810190838211818310171561040857610408610342565b8160405282815288602084870101111561042157600080fd5b826020860160208301376000602093820184015298969091013596505050505050565b600083516104568184602088016102cd565b83519083019061046a8183602088016102cd565b0194935050505056fe608060405260405161016a38038061016a8339810160408190526100229161004b565b600080546001600160a01b0319166001600160a01b039390931692909217909155600155610085565b6000806040838503121561005e57600080fd5b82516001600160a01b038116811461007557600080fd5b6020939093015192949293505050565b60d7806100936000396000f3fe6080604052348015600f57600080fd5b5060043610603c5760003560e01c806312065fe01460415780638da5cb5b146056578063c2985578146099575b600080fd5b475b6040519081526020015b60405180910390f35b60005460759073ffffffffffffffffffffffffffffffffffffffff1681565b60405173ffffffffffffffffffffffffffffffffffffffff9091168152602001604d565b60436001548156fea2646970667358221220529a52b9d7ec8b914bfaca484716d56dfb87dd360c47a2d0702d7e28d4a1a6ae64736f6c63430008110033a26469706673582212207391742367931adb0cde86695d681b2b5e09512ea7ede11424270863f7aae36264736f6c63430008110033",
    "linkReferences": {}
  },
  "methodIdentifiers": {
    "deploy(bytes,uint256)": "9c4ae2d0",
    "getAddress(bytes,uint256)": "94ca2cb5",
    "getBytecode(address,uint256)": "81871cbc"
  },
  "id": 3
}