{
  "abi": [
    {
      "inputs": [
        {
          "internalType": "address",
          "name": "_owner",
          "type": "address"
        },
        {
          "internalType": "uint256",
          "name": "_foo",
          "type": "uint256"
        }
      ],
      "stateMutability": "payable",
      "type": "constructor"
    },
    {
      "inputs": [],
      "name": "foo",
      "outputs": [
        {
          "internalType": "uint256",
          "name": "",
          "type": "uint256"
        }
      ],
      "stateMutability": "view",
      "type": "function"
    },
    {
      "inputs": [],
      "name": "getBalance",
      "outputs": [
        {
          "internalType": "uint256",
          "name": "",
          "type": "uint256"
        }
      ],
      "stateMutability": "view",
      "type": "function"
    },
    {
      "inputs": [],
      "name": "owner",
      "outputs": [
        {
          "internalType": "address",
          "name": "",
          "type": "address"
        }
      ],
      "stateMutability": "view",
      "type": "function"
    }
  ],
  "bytecode": {
    "object": "0x608060405260405161016a38038061016a8339810160408190526100229161004b565b600080546001600160a01b0319166001600160a01b039390931692909217909155600155610085565b6000806040838503121561005e57600080fd5b82516001600160a01b038116811461007557600080fd5b6020939093015192949293505050565b60d7806100936000396000f3fe6080604052348015600f57600080fd5b5060043610603c5760003560e01c806312065fe01460415780638da5cb5b146056578063c2985578146099575b600080fd5b475b6040519081526020015b60405180910390f35b60005460759073ffffffffffffffffffffffffffffffffffffffff1681565b60405173ffffffffffffffffffffffffffffffffffffffff9091168152602001604d565b60436001548156fea2646970667358221220529a52b9d7ec8b914bfaca484716d56dfb87dd360c47a2d0702d7e28d4a1a6ae64736f6c63430008110033",
    "linkReferences": {}
  },
  "methodIdentifiers": {
    "foo()": "c2985578",
    "getBalance()": "12065fe0",
    "owner()": "8da5cb5b"
  },
  "id": 3
}