{
  "abi": [
    {
      "inputs": [
        {
          "internalType": "address",
          "name": "from",
          "type": "address"
        },
        {
          "internalType": "address",
          "name": "to",
          "type": "address"
        },
        {
          "internalType": "uint256",
          "name": "amount",
          "type": "uint256"
        }
      ],
      "name": "toBytes",
      "outputs": [
        {
          "internalType": "bytes",
          "name": "",
          "type": "bytes"
        }
      ],
      "stateMutability": "pure",
      "type": "function"
    }
  ],
  "bytecode": {
    "object": "0x608060405234801561001057600080fd5b506101a2806100206000396000f3fe608060405234801561001057600080fd5b506004361061002b5760003560e01c8063502c3c3b14610030575b600080fd5b61008561003e3660046100c4565b6040805173ffffffffffffffffffffffffffffffffffffffff9485166020820152929093168284015260608083019190915282518083039091018152608090910190915290565b6040516100929190610100565b60405180910390f35b803573ffffffffffffffffffffffffffffffffffffffff811681146100bf57600080fd5b919050565b6000806000606084860312156100d957600080fd5b6100e28461009b565b92506100f06020850161009b565b9150604084013590509250925092565b600060208083528351808285015260005b8181101561012d57858101830151858201604001528201610111565b5060006040828601015260407fffffffffffffffffffffffffffffffffffffffffffffffffffffffffffffffe0601f830116850101925050509291505056fea26469706673582212201df66d805972079151cfdd04f8ea9241efcac90050295d885dec679894a3543a64736f6c63430008110033",
    "linkReferences": {}
  },
  "methodIdentifiers": {
    "toBytes(address,address,uint256)": "502c3c3b"
  },
  "id": 17
}