{
  "abi": [
    {
      "inputs": [],
      "stateMutability": "nonpayable",
      "type": "constructor"
    },
    {
      "anonymous": false,
      "inputs": [
        {
          "indexed": false,
          "internalType": "string",
          "name": "message",
          "type": "string"
        }
      ],
      "name": "Log",
      "type": "event"
    },
    {
      "anonymous": false,
      "inputs": [
        {
          "indexed": false,
          "internalType": "bytes",
          "name": "data",
          "type": "bytes"
        }
      ],
      "name": "LogBytes",
      "type": "event"
    },
    {
      "inputs": [],
      "name": "foo",
      "outputs": [
        {
          "internalType": "contract Foo",
          "name": "",
          "type": "address"
        }
      ],
      "stateMutability": "view",
      "type": "function"
    },
    {
      "inputs": [
        {
          "internalType": "uint256",
          "name": "_i",
          "type": "uint256"
        }
      ],
      "name": "tryCatchExternalCall",
      "outputs": [],
      "stateMutability": "nonpayable",
      "type": "function"
    },
    {
      "inputs": [
        {
          "internalType": "address",
          "name": "_owner",
          "type": "address"
        }
      ],
      "name": "tryCatchNewContract",
      "outputs": [],
      "stateMutability": "nonpayable",
      "type": "function"
    }
  ],
  "bytecode": {
    "object": "0x608060405234801561001057600080fd5b503360405161001e90610070565b6001600160a01b039091168152602001604051809103906000f08015801561004a573d6000803e3d6000fd5b50600080546001600160a01b0319166001600160a01b039290921691909117905561007d565b610317806109e783390190565b61095b8061008c6000396000f3fe608060405234801561001057600080fd5b50600436106100415760003560e01c806377bdab8314610046578063933ac0841461005b578063c29855781461006e575b600080fd5b610059610054366004610343565b6100b7565b005b610059610069366004610380565b61021a565b60005461008e9073ffffffffffffffffffffffffffffffffffffffff1681565b60405173ffffffffffffffffffffffffffffffffffffffff909116815260200160405180910390f35b806040516100c490610336565b73ffffffffffffffffffffffffffffffffffffffff9091168152602001604051809103906000f080156100f45760015b6101bb57610100610399565b806308c379a00361015a575061011461042f565b8061011f575061015c565b7fcf34ef537ac33ee1ac626ca1587a0a7e8e51561e5514f8cb36afa1c5102b3bab8160405161014e9190610545565b60405180910390a15050565b505b3d808015610186576040519150601f19603f3d011682016040523d82523d6000602084013e61018b565b606091505b507f532fd6ea96cfb78bb46e09279a26828b8b493de1a2b8b1ee1face527978a15a58160405161014e9190610545565b7fcf34ef537ac33ee1ac626ca1587a0a7e8e51561e5514f8cb36afa1c5102b3bab60405161014e906020808252600b908201527f466f6f2063726561746564000000000000000000000000000000000000000000604082015260600190565b6000546040517fa9bf56330000000000000000000000000000000000000000000000000000000081526004810183905273ffffffffffffffffffffffffffffffffffffffff9091169063a9bf563390602401600060405180830381865afa9250505080156102c857506040513d6000823e601f3d9081017fffffffffffffffffffffffffffffffffffffffffffffffffffffffffffffffe01682016040526102c59190810190610558565b60015b61011f577fcf34ef537ac33ee1ac626ca1587a0a7e8e51561e5514f8cb36afa1c5102b3bab60405161032b9060208082526014908201527f65787465726e616c2063616c6c206661696c6564000000000000000000000000604082015260600190565b60405180910390a150565b6103178061060f83390190565b60006020828403121561035557600080fd5b813573ffffffffffffffffffffffffffffffffffffffff8116811461037957600080fd5b9392505050565b60006020828403121561039257600080fd5b5035919050565b600060033d11156103b25760046000803e5060005160e01c5b90565b7f4e487b7100000000000000000000000000000000000000000000000000000000600052604160045260246000fd5b7fffffffffffffffffffffffffffffffffffffffffffffffffffffffffffffffe0601f830116810181811067ffffffffffffffff82111715610428576104286103b5565b6040525050565b600060443d101561043d5790565b6040517ffffffffffffffffffffffffffffffffffffffffffffffffffffffffffffffffc803d016004833e81513d67ffffffffffffffff816024840111818411171561048b57505050505090565b82850191508151818111156104a35750505050505090565b843d87010160208285010111156104bd5750505050505090565b6104cc602082860101876103e4565b509095945050505050565b60005b838110156104f25781810151838201526020016104da565b50506000910152565b600081518084526105138160208601602086016104d7565b601f017fffffffffffffffffffffffffffffffffffffffffffffffffffffffffffffffe0169290920160200192915050565b60208152600061037960208301846104fb565b60006020828403121561056a57600080fd5b815167ffffffffffffffff8082111561058257600080fd5b818401915084601f83011261059657600080fd5b8151818111156105a8576105a86103b5565b60405191506105df60207fffffffffffffffffffffffffffffffffffffffffffffffffffffffffffffffe0601f84011601836103e4565b8082528560208285010111156105f457600080fd5b6106058160208401602086016104d7565b5094935050505056fe608060405234801561001057600080fd5b5060405161031738038061031783398101604081905261002f916100b9565b6001600160a01b03811661007b5760405162461bcd60e51b815260206004820152600f60248201526e696e76616c6964206164647265737360881b604482015260640160405180910390fd5b6001600160a01b038116600103610094576100946100e9565b600080546001600160a01b0319166001600160a01b03929092169190911790556100ff565b6000602082840312156100cb57600080fd5b81516001600160a01b03811681146100e257600080fd5b9392505050565b634e487b7160e01b600052600160045260246000fd5b6102098061010e6000396000f3fe608060405234801561001057600080fd5b50600436106100365760003560e01c80638da5cb5b1461003b578063a9bf563314610085575b600080fd5b60005461005b9073ffffffffffffffffffffffffffffffffffffffff1681565b60405173ffffffffffffffffffffffffffffffffffffffff90911681526020015b60405180910390f35b61009861009336600461014e565b6100a5565b60405161007c9190610167565b606081600003610115576040517f08c379a000000000000000000000000000000000000000000000000000000000815260206004820152600e60248201527f72657175697265206661696c6564000000000000000000000000000000000000604482015260640160405180910390fd5b505060408051808201909152601281527f6d792066756e63207761732063616c6c65640000000000000000000000000000602082015290565b60006020828403121561016057600080fd5b5035919050565b600060208083528351808285015260005b8181101561019457858101830151858201604001528201610178565b5060006040828601015260407fffffffffffffffffffffffffffffffffffffffffffffffffffffffffffffffe0601f830116850101925050509291505056fea264697066735822122051c3fb378b5e4db8bf82c7831f43f07a0b6a81d0b473ac5a083276f2317575aa64736f6c63430008110033a26469706673582212200096e481d6837fc639dc88e66149e3178ab825ef21cef8e2ec8c2490819cde9864736f6c63430008110033608060405234801561001057600080fd5b5060405161031738038061031783398101604081905261002f916100b9565b6001600160a01b03811661007b5760405162461bcd60e51b815260206004820152600f60248201526e696e76616c6964206164647265737360881b604482015260640160405180910390fd5b6001600160a01b038116600103610094576100946100e9565b600080546001600160a01b0319166001600160a01b03929092169190911790556100ff565b6000602082840312156100cb57600080fd5b81516001600160a01b03811681146100e257600080fd5b9392505050565b634e487b7160e01b600052600160045260246000fd5b6102098061010e6000396000f3fe608060405234801561001057600080fd5b50600436106100365760003560e01c80638da5cb5b1461003b578063a9bf563314610085575b600080fd5b60005461005b9073ffffffffffffffffffffffffffffffffffffffff1681565b60405173ffffffffffffffffffffffffffffffffffffffff90911681526020015b60405180910390f35b61009861009336600461014e565b6100a5565b60405161007c9190610167565b606081600003610115576040517f08c379a000000000000000000000000000000000000000000000000000000000815260206004820152600e60248201527f72657175697265206661696c6564000000000000000000000000000000000000604482015260640160405180910390fd5b505060408051808201909152601281527f6d792066756e63207761732063616c6c65640000000000000000000000000000602082015290565b60006020828403121561016057600080fd5b5035919050565b600060208083528351808285015260005b8181101561019457858101830151858201604001528201610178565b5060006040828601015260407fffffffffffffffffffffffffffffffffffffffffffffffffffffffffffffffe0601f830116850101925050509291505056fea264697066735822122051c3fb378b5e4db8bf82c7831f43f07a0b6a81d0b473ac5a083276f2317575aa64736f6c63430008110033",
    "linkReferences": {}
  },
  "methodIdentifiers": {
    "foo()": "c2985578",
    "tryCatchExternalCall(uint256)": "933ac084",
    "tryCatchNewContract(address)": "77bdab83"
  },
  "id": 21
}