{
  "abi": [
    {
      "inputs": [
        {
          "internalType": "address",
          "name": "_owner",
          "type": "address"
        }
      ],
      "stateMutability": "nonpayable",
      "type": "constructor"
    },
    {
      "inputs": [
        {
          "internalType": "uint256",
          "name": "x",
          "type": "uint256"
        }
      ],
      "name": "myFunc",
      "outputs": [
        {
          "internalType": "string",
          "name": "",
          "type": "string"
        }
      ],
      "stateMutability": "pure",
      "type": "function"
    },
    {
      "inputs": [],
      "name": "owner",
      "outputs": [
        {
          "internalType": "address",
          "name": "",
          "type": "address"
        }
      ],
      "stateMutability": "view",
      "type": "function"
    }
  ],
  "bytecode": {
    "object": "0x608060405234801561001057600080fd5b5060405161031738038061031783398101604081905261002f916100b9565b6001600160a01b03811661007b5760405162461bcd60e51b815260206004820152600f60248201526e696e76616c6964206164647265737360881b604482015260640160405180910390fd5b6001600160a01b038116600103610094576100946100e9565b600080546001600160a01b0319166001600160a01b03929092169190911790556100ff565b6000602082840312156100cb57600080fd5b81516001600160a01b03811681146100e257600080fd5b9392505050565b634e487b7160e01b600052600160045260246000fd5b6102098061010e6000396000f3fe608060405234801561001057600080fd5b50600436106100365760003560e01c80638da5cb5b1461003b578063a9bf563314610085575b600080fd5b60005461005b9073ffffffffffffffffffffffffffffffffffffffff1681565b60405173ffffffffffffffffffffffffffffffffffffffff90911681526020015b60405180910390f35b61009861009336600461014e565b6100a5565b60405161007c9190610167565b606081600003610115576040517f08c379a000000000000000000000000000000000000000000000000000000000815260206004820152600e60248201527f72657175697265206661696c6564000000000000000000000000000000000000604482015260640160405180910390fd5b505060408051808201909152601281527f6d792066756e63207761732063616c6c65640000000000000000000000000000602082015290565b60006020828403121561016057600080fd5b5035919050565b600060208083528351808285015260005b8181101561019457858101830151858201604001528201610178565b5060006040828601015260407fffffffffffffffffffffffffffffffffffffffffffffffffffffffffffffffe0601f830116850101925050509291505056fea264697066735822122051c3fb378b5e4db8bf82c7831f43f07a0b6a81d0b473ac5a083276f2317575aa64736f6c63430008110033",
    "linkReferences": {}
  },
  "methodIdentifiers": {
    "myFunc(uint256)": "a9bf5633",
    "owner()": "8da5cb5b"
  },
  "id": 21
}