{
  "abi": [
    {
      "inputs": [],
      "name": "getSlot",
      "outputs": [
        {
          "internalType": "bytes32",
          "name": "",
          "type": "bytes32"
        }
      ],
      "stateMutability": "view",
      "type": "function"
    },
    {
      "inputs": [
        {
          "internalType": "string",
          "name": "_slot",
          "type": "string"
        }
      ],
      "name": "setSlot",
      "outputs": [],
      "stateMutability": "nonpayable",
      "type": "function"
    }
  ],
  "bytecode": {
    "object": "0x608060405234801561001057600080fd5b506101f2806100206000396000f3fe608060405234801561001057600080fd5b50600436106100365760003560e01c80636c877c841461003b57806387378bf414610050575b600080fd5b60005460405190815260200160405180910390f35b61006361005e3660046100ad565b610065565b005b805160208201206100789060019061017c565b60005550565b7f4e487b7100000000000000000000000000000000000000000000000000000000600052604160045260246000fd5b6000602082840312156100bf57600080fd5b813567ffffffffffffffff808211156100d757600080fd5b818401915084601f8301126100eb57600080fd5b8135818111156100fd576100fd61007e565b604051601f82017fffffffffffffffffffffffffffffffffffffffffffffffffffffffffffffffe0908116603f011681019083821181831017156101435761014361007e565b8160405282815287602084870101111561015c57600080fd5b826020860160208301376000928101602001929092525095945050505050565b818103818111156101b6577f4e487b7100000000000000000000000000000000000000000000000000000000600052601160045260246000fd5b9291505056fea2646970667358221220c07ea5ed2ff5f7fe18d0699036cd3d4773b052df27d3e165b930b5a4b008b4ea64736f6c63430008110033",
    "linkReferences": {}
  },
  "methodIdentifiers": {
    "getSlot()": "6c877c84",
    "setSlot(string)": "87378bf4"
  },
  "id": 16
}