{
  "abi": [
    {
      "inputs": [
        {
          "internalType": "uint256",
          "name": "",
          "type": "uint256"
        }
      ],
      "name": "arr",
      "outputs": [
        {
          "internalType": "uint256",
          "name": "",
          "type": "uint256"
        }
      ],
      "stateMutability": "view",
      "type": "function"
    },
    {
      "inputs": [
        {
          "internalType": "uint256",
          "name": "",
          "type": "uint256"
        }
      ],
      "name": "arr2",
      "outputs": [
        {
          "internalType": "uint256",
          "name": "",
          "type": "uint256"
        }
      ],
      "stateMutability": "view",
      "type": "function"
    },
    {
      "inputs": [],
      "name": "examples",
      "outputs": [],
      "stateMutability": "nonpayable",
      "type": "function"
    },
    {
      "inputs": [
        {
          "internalType": "uint256",
          "name": "i",
          "type": "uint256"
        }
      ],
      "name": "get",
      "outputs": [
        {
          "internalType": "uint256",
          "name": "",
          "type": "uint256"
        }
      ],
      "stateMutability": "view",
      "type": "function"
    },
    {
      "inputs": [],
      "name": "getArr",
      "outputs": [
        {
          "internalType": "uint256[]",
          "name": "",
          "type": "uint256[]"
        }
      ],
      "stateMutability": "view",
      "type": "function"
    },
    {
      "inputs": [],
      "name": "getLength",
      "outputs": [
        {
          "internalType": "uint256",
          "name": "",
          "type": "uint256"
        }
      ],
      "stateMutability": "view",
      "type": "function"
    },
    {
      "inputs": [
        {
          "internalType": "uint256",
          "name": "",
          "type": "uint256"
        }
      ],
      "name": "myFixedSizeArr",
      "outputs": [
        {
          "internalType": "uint256",
          "name": "",
          "type": "uint256"
        }
      ],
      "stateMutability": "view",
      "type": "function"
    },
    {
      "inputs": [],
      "name": "pop",
      "outputs": [],
      "stateMutability": "nonpayable",
      "type": "function"
    },
    {
      "inputs": [
        {
          "internalType": "uint256",
          "name": "i",
          "type": "uint256"
        }
      ],
      "name": "push",
      "outputs": [],
      "stateMutability": "nonpayable",
      "type": "function"
    },
    {
      "inputs": [
        {
          "internalType": "uint256",
          "name": "index",
          "type": "uint256"
        }
      ],
      "name": "remove",
      "outputs": [],
      "stateMutability": "nonpayable",
      "type": "function"
    }
  ],
  "bytecode": {
    "object": "0x60e060405260016080818152600260a052600360c0819052610022929190610035565b5034801561002f57600080fd5b5061009a565b828054828255906000526020600020908101928215610075579160200282015b82811115610075578251829060ff16905591602001919060010190610055565b50610081929150610085565b5090565b5b808211156100815760008155600101610086565b6103c9806100a96000396000f3fe608060405234801561001057600080fd5b50600436106100be5760003560e01c8063959ac48411610076578063be1c766b1161005b578063be1c766b14610174578063edf0099b1461017c578063fb8cbced1461018f57600080fd5b8063959ac4841461012c578063a4ece52c1461016c57600080fd5b80634cc82215116100a75780634cc82215146100f357806371e5ee5f146101065780639507d39a1461011957600080fd5b8063335d00c2146100c357806338a067ce146100cd575b600080fd5b6100cb6101a4565b005b6100e06100db3660046102d8565b6101c8565b6040519081526020015b60405180910390f35b6100cb6101013660046102d8565b6101df565b6100e06101143660046102d8565b610200565b6100e06101273660046102d8565b610221565b6100cb61013a3660046102d8565b600080546001810182559080527f290decd9548b62a8d60345a988386fc84ba6bc95484008f6362f93160ef3e5630155565b6100cb610247565b6000546100e0565b6100e061018a3660046102d8565b610270565b610197610280565b6040516100ea91906102f1565b60408051600580825260c082019092526000916020820160a0803683375050505050565b600281600a81106101d857600080fd5b0154905081565b600081815481106101f2576101f2610335565b600091825260208220015550565b6000818154811061021057600080fd5b600091825260209091200154905081565b600080828154811061023557610235610335565b90600052602060002001549050919050565b600080548061025857610258610364565b60019003818190600052602060002001600090559055565b6001818154811061021057600080fd5b606060008054806020026020016040519081016040528092919081815260200182805480156102ce57602002820191906000526020600020905b8154815260200190600101908083116102ba575b5050505050905090565b6000602082840312156102ea57600080fd5b5035919050565b6020808252825182820181905260009190848201906040850190845b818110156103295783518352928401929184019160010161030d565b50909695505050505050565b7f4e487b7100000000000000000000000000000000000000000000000000000000600052603260045260246000fd5b7f4e487b7100000000000000000000000000000000000000000000000000000000600052603160045260246000fdfea2646970667358221220faa86d164c1af5eecc86bb3dbbf2e2be47b5ea918164bbdf5485bef70d436e9064736f6c63430008110033",
    "linkReferences": {}
  },
  "methodIdentifiers": {
    "arr(uint256)": "71e5ee5f",
    "arr2(uint256)": "edf0099b",
    "examples()": "335d00c2",
    "get(uint256)": "9507d39a",
    "getArr()": "fb8cbced",
    "getLength()": "be1c766b",
    "myFixedSizeArr(uint256)": "38a067ce",
    "pop()": "a4ece52c",
    "push(uint256)": "959ac484",
    "remove(uint256)": "4cc82215"
  },
  "id": 0
}