{
  "abi": [
    {
      "inputs": [],
      "name": "getTokenReserves",
      "outputs": [
        {
          "internalType": "uint256",
          "name": "",
          "type": "uint256"
        },
        {
          "internalType": "uint256",
          "name": "",
          "type": "uint256"
        }
      ],
      "stateMutability": "view",
      "type": "function"
    }
  ],
  "bytecode": {
    "object": "0x6080604052600080546001600160a01b0319908116735c69bee701ef814a2b6a3edd4b1652cb9cc5aa6f17909155600180548216736b175474e89094c44da98b954eedeac495271d0f1790556002805490911673c02aaa39b223fe8d0a0e5c4f27ead9083c756cc217905534801561007657600080fd5b5061026f806100866000396000f3fe608060405234801561001057600080fd5b506004361061002b5760003560e01c8063b9cf500514610030575b600080fd5b610038610051565b6040805192835260208301919091520160405180910390f35b600080546001546002546040517fe6a4390500000000000000000000000000000000000000000000000000000000815273ffffffffffffffffffffffffffffffffffffffff9283166004820152908216602482015283928392169063e6a4390590604401602060405180830381865afa1580156100d2573d6000803e3d6000fd5b505050506040513d601f19601f820116820180604052508101906100f69190610189565b90506000808273ffffffffffffffffffffffffffffffffffffffff16630902f1ac6040518163ffffffff1660e01b8152600401606060405180830381865afa158015610146573d6000803e3d6000fd5b505050506040513d601f19601f8201168201806040525081019061016a91906101e9565b506dffffffffffffffffffffffffffff91821697911695509350505050565b60006020828403121561019b57600080fd5b815173ffffffffffffffffffffffffffffffffffffffff811681146101bf57600080fd5b9392505050565b80516dffffffffffffffffffffffffffff811681146101e457600080fd5b919050565b6000806000606084860312156101fe57600080fd5b610207846101c6565b9250610215602085016101c6565b9150604084015163ffffffff8116811461022e57600080fd5b80915050925092509256fea264697066735822122054ea760568f7bf66378a064bd3b0f7f0e07a280224ff160fa4dcf470fec6d2e264736f6c63430008110033",
    "linkReferences": {}
  },
  "methodIdentifiers": {
    "getTokenReserves()": "b9cf5005"
  },
  "id": 11
}