{
  "abi": [
    {
      "inputs": [],
      "name": "balance",
      "outputs": [
        {
          "internalType": "uint256",
          "name": "",
          "type": "uint256"
        }
      ],
      "stateMutability": "view",
      "type": "function"
    },
    {
      "inputs": [],
      "name": "claimThrone",
      "outputs": [],
      "stateMutability": "payable",
      "type": "function"
    },
    {
      "inputs": [],
      "name": "king",
      "outputs": [
        {
          "internalType": "address",
          "name": "",
          "type": "address"
        }
      ],
      "stateMutability": "view",
      "type": "function"
    }
  ],
  "bytecode": {
    "object": "0x608060405234801561001057600080fd5b50610286806100206000396000f3fe6080604052600436106100345760003560e01c806369deb7b714610039578063b69ef8a814610043578063cc181ca81461006c575b600080fd5b6100416100be565b005b34801561004f57600080fd5b5061005960015481565b6040519081526020015b60405180910390f35b34801561007857600080fd5b506000546100999073ffffffffffffffffffffffffffffffffffffffff1681565b60405173ffffffffffffffffffffffffffffffffffffffff9091168152602001610063565b6001543411610154576040517f08c379a000000000000000000000000000000000000000000000000000000000815260206004820152602360248201527f4e65656420746f20706179206d6f726520746f206265636f6d6520746865206b60448201527f696e67000000000000000000000000000000000000000000000000000000000060648201526084015b60405180910390fd5b6000805460015460405173ffffffffffffffffffffffffffffffffffffffff909216918381818185875af1925050503d80600081146101af576040519150601f19603f3d011682016040523d82523d6000602084013e6101b4565b606091505b505090508061021f576040517f08c379a000000000000000000000000000000000000000000000000000000000815260206004820152601460248201527f4661696c656420746f2073656e64204574686572000000000000000000000000604482015260640161014b565b5034600155600080547fffffffffffffffffffffffff0000000000000000000000000000000000000000163317905556fea26469706673582212206073b68bcffd06418f5333fcc49aeb207938f9f54ee383a5ce03f23652ef01ba64736f6c63430008110033",
    "linkReferences": {}
  },
  "methodIdentifiers": {
    "balance()": "b69ef8a8",
    "claimThrone()": "69deb7b7",
    "king()": "cc181ca8"
  },
  "id": 15
}