{
  "abi": [
    {
      "inputs": [
        {
          "internalType": "uint256",
          "name": "x",
          "type": "uint256"
        }
      ],
      "name": "foo",
      "outputs": [
        {
          "internalType": "uint256",
          "name": "",
          "type": "uint256"
        }
      ],
      "stateMutability": "pure",
      "type": "function"
    },
    {
      "inputs": [
        {
          "internalType": "uint256",
          "name": "_x",
          "type": "uint256"
        }
      ],
      "name": "ternary",
      "outputs": [
        {
          "internalType": "uint256",
          "name": "",
          "type": "uint256"
        }
      ],
      "stateMutability": "pure",
      "type": "function"
    }
  ],
  "bytecode": {
    "object": "0x608060405234801561001057600080fd5b5060fa8061001f6000396000f3fe6080604052348015600f57600080fd5b506004361060325760003560e01c80632fbebd3814603757806355278c5b146058575b600080fd5b6046604236600460ac565b6067565b60405190815260200160405180910390f35b6046606336600460ac565b6091565b6000600a821015607957506000919050565b6014821015608957506001919050565b506002919050565b6000600a821060a057600260a3565b60015b60ff1692915050565b60006020828403121560bd57600080fd5b503591905056fea26469706673582212201b20a0cdb6a457af33e35b18b95bd01c3057946d3d85f85579ed6db2f7f2541364736f6c63430008110033",
    "linkReferences": {}
  },
  "methodIdentifiers": {
    "foo(uint256)": "2fbebd38",
    "ternary(uint256)": "55278c5b"
  },
  "id": 9
}