{
  "abi": [
    {
      "inputs": [
        {
          "internalType": "uint256",
          "name": "_num",
          "type": "uint256"
        }
      ],
      "stateMutability": "nonpayable",
      "type": "constructor"
    },
    {
      "inputs": [],
      "name": "getMagicNumber",
      "outputs": [
        {
          "internalType": "uint256",
          "name": "",
          "type": "uint256"
        }
      ],
      "stateMutability": "view",
      "type": "function"
    },
    {
      "inputs": [],
      "name": "magicNumber",
      "outputs": [
        {
          "internalType": "uint256",
          "name": "",
          "type": "uint256"
        }
      ],
      "stateMutability": "view",
      "type": "function"
    },
    {
      "inputs": [
        {
          "internalType": "uint256",
          "name": "_num",
          "type": "uint256"
        }
      ],
      "name": "setMagicNumber",
      "outputs": [],
      "stateMutability": "nonpayable",
      "type": "function"
    }
  ],
  "bytecode": {
    "object": "0x608060405234801561001057600080fd5b5060405161012038038061012083398101604081905261002f91610037565b600055610050565b60006020828403121561004957600080fd5b5051919050565b60c28061005e6000396000f3fe6080604052348015600f57600080fd5b5060043610603c5760003560e01c80632ba2ed9814604157806341837a2f14605357806359ff5b5514606d575b600080fd5b6051604c3660046074565b600055565b005b605b60005481565b60405190815260200160405180910390f35b600054605b565b600060208284031215608557600080fd5b503591905056fea264697066735822122004aad853aa1df6c9df756d8027f201043f54e68be4b4982f23d2d8f0c9ca673464736f6c634300080a0033",
    "linkReferences": {}
  },
  "methodIdentifiers": {
    "getMagicNumber()": "59ff5b55",
    "magicNumber()": "41837a2f",
    "setMagicNumber(uint256)": "2ba2ed98"
  },
  "id": 1
}