{
  "abi": [
    {
      "inputs": [
        {
          "internalType": "uint256",
          "name": "_num",
          "type": "uint256"
        }
      ],
      "stateMutability": "nonpayable",
      "type": "constructor"
    },
    {
      "inputs": [],
      "name": "magicNumber",
      "outputs": [
        {
          "internalType": "uint256",
          "name": "",
          "type": "uint256"
        }
      ],
      "stateMutability": "view",
      "type": "function"
    },
    {
      "inputs": [
        {
          "internalType": "uint256",
          "name": "_num",
          "type": "uint256"
        }
      ],
      "name": "setMagicNumber",
      "outputs": [],
      "stateMutability": "nonpayable",
      "type": "function"
    }
  ],
  "bytecode": {
    "object": "0x608060405234801561001057600080fd5b506040516100e63803806100e683398101604081905261002f91610037565b600055610050565b60006020828403121561004957600080fd5b5051919050565b60888061005e6000396000f3fe6080604052348015600f57600080fd5b506004361060325760003560e01c80632ba2ed9814603757806341837a2f146049575b600080fd5b604760423660046063565b600055565b005b605160005481565b60405190815260200160405180910390f35b600060208284031215607457600080fd5b503591905056fea164736f6c634300080b000a",
    "linkReferences": {}
  }
}