{
  "abi": [
    {
      "inputs": [],
      "name": "testIterableMap",
      "outputs": [],
      "stateMutability": "nonpayable",
      "type": "function"
    }
  ],
  "bytecode": {
    "object": "0x608060405234801561001057600080fd5b50610980806100206000396000f3fe608060405234801561001057600080fd5b506004361061002b5760003560e01c8063d230a0d514610030575b600080fd5b61003861003a565b005b6040517fbc2b405c00000000000000000000000000000000000000000000000000000000815260006004820181905260248201819052604482015273__$ce39e7eba0e8c210ce522c13d692fbaca1$__9063bc2b405c9060640160006040518083038186803b1580156100ac57600080fd5b505af41580156100c0573d6000803e3d6000fd5b50506040517fbc2b405c000000000000000000000000000000000000000000000000000000008152600060048201526001602482015260646044820181905273__$ce39e7eba0e8c210ce522c13d692fbaca1$__935063bc2b405c92500160006040518083038186803b15801561013657600080fd5b505af415801561014a573d6000803e3d6000fd5b50506040517fbc2b405c000000000000000000000000000000000000000000000000000000008152600060048201526002602482015260c8604482015273__$ce39e7eba0e8c210ce522c13d692fbaca1$__925063bc2b405c915060640160006040518083038186803b1580156101c057600080fd5b505af41580156101d4573d6000803e3d6000fd5b50506040517fbc2b405c000000000000000000000000000000000000000000000000000000008152600060048201526002602482015260c8604482015273__$ce39e7eba0e8c210ce522c13d692fbaca1$__925063bc2b405c915060640160006040518083038186803b15801561024a57600080fd5b505af415801561025e573d6000803e3d6000fd5b50506040517fbc2b405c000000000000000000000000000000000000000000000000000000008152600060048201526003602482015261012c604482015273__$ce39e7eba0e8c210ce522c13d692fbaca1$__925063bc2b405c915060640160006040518083038186803b1580156102d557600080fd5b505af41580156102e9573d6000803e3d6000fd5b5050505060005b6040517fdeb3d8960000000000000000000000000000000000000000000000000000000081526000600482015273__$ce39e7eba0e8c210ce522c13d692fbaca1$__9063deb3d89690602401602060405180830381865af4158015610359573d6000803e3d6000fd5b505050506040513d601f19601f8201168201806040525081019061037d9190610841565b8110156104f1576040517fd1aa9e7e000000000000000000000000000000000000000000000000000000008152600060048201819052602482018390529073__$ce39e7eba0e8c210ce522c13d692fbaca1$__9063d1aa9e7e90604401602060405180830381865af41580156103f7573d6000803e3d6000fd5b505050506040513d601f19601f8201168201806040525081019061041b919061085a565b90506104288260646108c6565b6040517f732a2ccf0000000000000000000000000000000000000000000000000000000081526000600482015273ffffffffffffffffffffffffffffffffffffffff8316602482015273__$ce39e7eba0e8c210ce522c13d692fbaca1$__9063732a2ccf90604401602060405180830381865af41580156104ad573d6000803e3d6000fd5b505050506040513d601f19601f820116820180604052508101906104d19190610841565b146104de576104de6108e3565b50806104e981610912565b9150506102f0565b506040517f4c60db9c000000000000000000000000000000000000000000000000000000008152600060048201526001602482015273__$ce39e7eba0e8c210ce522c13d692fbaca1$__90634c60db9c9060440160006040518083038186803b15801561055d57600080fd5b505af4158015610571573d6000803e3d6000fd5b50506040517fdeb3d8960000000000000000000000000000000000000000000000000000000081526000600482015273__$ce39e7eba0e8c210ce522c13d692fbaca1$__925063deb3d8969150602401602060405180830381865af41580156105de573d6000803e3d6000fd5b505050506040513d601f19601f820116820180604052508101906106029190610841565b600314610611576106116108e3565b6040517fd1aa9e7e000000000000000000000000000000000000000000000000000000008152600060048201819052602482018190529073__$ce39e7eba0e8c210ce522c13d692fbaca1$__9063d1aa9e7e90604401602060405180830381865af4158015610684573d6000803e3d6000fd5b505050506040513d601f19601f820116820180604052508101906106a8919061085a565b73ffffffffffffffffffffffffffffffffffffffff16146106cb576106cb6108e3565b6040517fd1aa9e7e000000000000000000000000000000000000000000000000000000008152600060048201526001602482015260039073__$ce39e7eba0e8c210ce522c13d692fbaca1$__9063d1aa9e7e90604401602060405180830381865af415801561073e573d6000803e3d6000fd5b505050506040513d601f19601f82011682018060405250810190610762919061085a565b73ffffffffffffffffffffffffffffffffffffffff1614610785576107856108e3565b6040517fd1aa9e7e000000000000000000000000000000000000000000000000000000008152600060048201526002602482018190529073__$ce39e7eba0e8c210ce522c13d692fbaca1$__9063d1aa9e7e90604401602060405180830381865af41580156107f8573d6000803e3d6000fd5b505050506040513d601f19601f8201168201806040525081019061081c919061085a565b73ffffffffffffffffffffffffffffffffffffffff161461083f5761083f6108e3565b565b60006020828403121561085357600080fd5b5051919050565b60006020828403121561086c57600080fd5b815173ffffffffffffffffffffffffffffffffffffffff8116811461089057600080fd5b9392505050565b7f4e487b7100000000000000000000000000000000000000000000000000000000600052601160045260246000fd5b80820281158282048414176108dd576108dd610897565b92915050565b7f4e487b7100000000000000000000000000000000000000000000000000000000600052600160045260246000fd5b60007fffffffffffffffffffffffffffffffffffffffffffffffffffffffffffffffff820361094357610943610897565b506001019056fea264697066735822122099c9801e846b13d66a2027d55497e0c25eac8547e9ca826e53e507e8ca70543464736f6c63430008110033",
    "linkReferences": {
      "contracts/IterableMapping.sol": {
        "IterableMapping": [
          {
            "start": 151,
            "length": 20
          },
          {
            "start": 289,
            "length": 20
          },
          {
            "start": 425,
            "length": 20
          },
          {
            "start": 563,
            "length": 20
          },
          {
            "start": 702,
            "length": 20
          },
          {
            "start": 831,
            "length": 20
          },
          {
            "start": 989,
            "length": 20
          },
          {
            "start": 1171,
            "length": 20
          },
          {
            "start": 1352,
            "length": 20
          },
          {
            "start": 1474,
            "length": 20
          },
          {
            "start": 1642,
            "length": 20
          },
          {
            "start": 1828,
            "length": 20
          },
          {
            "start": 2014,
            "length": 20
          }
        ]
      }
    }
  },
  "methodIdentifiers": {
    "testIterableMap()": "d230a0d5"
  },
  "id": 12
}