{
  "abi": [
    {
      "inputs": [
        {
          "internalType": "uint256",
          "name": "",
          "type": "uint256"
        }
      ],
      "name": "arr",
      "outputs": [
        {
          "internalType": "uint256",
          "name": "",
          "type": "uint256"
        }
      ],
      "stateMutability": "view",
      "type": "function"
    },
    {
      "inputs": [
        {
          "internalType": "uint256[]",
          "name": "_arr",
          "type": "uint256[]"
        }
      ],
      "name": "arrayInput",
      "outputs": [],
      "stateMutability": "nonpayable",
      "type": "function"
    },
    {
      "inputs": [],
      "name": "arrayOutput",
      "outputs": [
        {
          "internalType": "uint256[]",
          "name": "",
          "type": "uint256[]"
        }
      ],
      "stateMutability": "view",
      "type": "function"
    },
    {
      "inputs": [],
      "name": "assigned",
      "outputs": [
        {
          "internalType": "uint256",
          "name": "x",
          "type": "uint256"
        },
        {
          "internalType": "bool",
          "name": "b",
          "type": "bool"
        },
        {
          "internalType": "uint256",
          "name": "y",
          "type": "uint256"
        }
      ],
      "stateMutability": "pure",
      "type": "function"
    },
    {
      "inputs": [],
      "name": "destructuringAssignments",
      "outputs": [
        {
          "internalType": "uint256",
          "name": "",
          "type": "uint256"
        },
        {
          "internalType": "bool",
          "name": "",
          "type": "bool"
        },
        {
          "internalType": "uint256",
          "name": "",
          "type": "uint256"
        },
        {
          "internalType": "uint256",
          "name": "",
          "type": "uint256"
        },
        {
          "internalType": "uint256",
          "name": "",
          "type": "uint256"
        }
      ],
      "stateMutability": "pure",
      "type": "function"
    },
    {
      "inputs": [],
      "name": "named",
      "outputs": [
        {
          "internalType": "uint256",
          "name": "x",
          "type": "uint256"
        },
        {
          "internalType": "bool",
          "name": "b",
          "type": "bool"
        },
        {
          "internalType": "uint256",
          "name": "y",
          "type": "uint256"
        }
      ],
      "stateMutability": "pure",
      "type": "function"
    },
    {
      "inputs": [],
      "name": "returnMany",
      "outputs": [
        {
          "internalType": "uint256",
          "name": "",
          "type": "uint256"
        },
        {
          "internalType": "bool",
          "name": "",
          "type": "bool"
        },
        {
          "internalType": "uint256",
          "name": "",
          "type": "uint256"
        }
      ],
      "stateMutability": "pure",
      "type": "function"
    }
  ],
  "bytecode": {
    "object": "0x608060405234801561001057600080fd5b50610337806100206000396000f3fe608060405234801561001057600080fd5b506004361061007d5760003560e01c806371e5ee5f1161005b57806371e5ee5f146100ec57806386887544146100a0578063adb4d990146100a0578063f4bb6e6b1461010d57600080fd5b80631990532b1461008257806345f907a8146100a057806368873440146100bf575b600080fd5b61008a610120565b6040516100979190610199565b60405180910390f35b6040805160018082526020820152600291810191909152606001610097565b6040805160018082526020820152600291810191909152600460608201526006608082015260a001610097565b6100ff6100fa3660046101dd565b610178565b604051908152602001610097565b61011e61011b366004610225565b50565b005b6060600080548060200260200160405190810160405280929190818152602001828054801561016e57602002820191906000526020600020905b81548152602001906001019080831161015a575b5050505050905090565b6000818154811061018857600080fd5b600091825260209091200154905081565b6020808252825182820181905260009190848201906040850190845b818110156101d1578351835292840192918401916001016101b5565b50909695505050505050565b6000602082840312156101ef57600080fd5b5035919050565b7f4e487b7100000000000000000000000000000000000000000000000000000000600052604160045260246000fd5b6000602080838503121561023857600080fd5b823567ffffffffffffffff8082111561025057600080fd5b818501915085601f83011261026457600080fd5b813581811115610276576102766101f6565b8060051b6040517fffffffffffffffffffffffffffffffffffffffffffffffffffffffffffffffe0603f830116810181811085821117156102b9576102b96101f6565b6040529182528482019250838101850191888311156102d757600080fd5b938501935b828510156102f5578435845293850193928501926102dc565b9897505050505050505056fea2646970667358221220e7b13c6f31f1e4d41377326c83cdc9dfcb835b6e67ad46e53c0d54f0076d24f664736f6c63430008110033",
    "linkReferences": {}
  },
  "methodIdentifiers": {
    "arr(uint256)": "71e5ee5f",
    "arrayInput(uint256[])": "f4bb6e6b",
    "arrayOutput()": "1990532b",
    "assigned()": "adb4d990",
    "destructuringAssignments()": "68873440",
    "named()": "45f907a8",
    "returnMany()": "86887544"
  },
  "id": 8
}