{
  "abi": [
    {
      "inputs": [],
      "name": "callFunc",
      "outputs": [
        {
          "internalType": "uint256",
          "name": "",
          "type": "uint256"
        }
      ],
      "stateMutability": "pure",
      "type": "function"
    },
    {
      "inputs": [],
      "name": "callFuncWithKeyValue",
      "outputs": [
        {
          "internalType": "uint256",
          "name": "",
          "type": "uint256"
        }
      ],
      "stateMutability": "pure",
      "type": "function"
    },
    {
      "inputs": [
        {
          "internalType": "uint256",
          "name": "x",
          "type": "uint256"
        },
        {
          "internalType": "uint256",
          "name": "y",
          "type": "uint256"
        },
        {
          "internalType": "uint256",
          "name": "z",
          "type": "uint256"
        },
        {
          "internalType": "address",
          "name": "a",
          "type": "address"
        },
        {
          "internalType": "bool",
          "name": "b",
          "type": "bool"
        },
        {
          "internalType": "string",
          "name": "c",
          "type": "string"
        }
      ],
      "name": "someFuncWithManyInputs",
      "outputs": [
        {
          "internalType": "uint256",
          "name": "",
          "type": "uint256"
        }
      ],
      "stateMutability": "pure",
      "type": "function"
    }
  ],
  "bytecode": {
    "object": "0x608060405234801561001057600080fd5b50610241806100206000396000f3fe608060405234801561001057600080fd5b50600436106100415760003560e01c8063127b4e081461004657806372057987146100725780639a7846b914610072575b600080fd5b6100606100543660046100dd565b60009695505050505050565b60405190815260200160405180910390f35b60408051808201909152600181527f63000000000000000000000000000000000000000000000000000000000000006020909101526000610060565b7f4e487b7100000000000000000000000000000000000000000000000000000000600052604160045260246000fd5b60008060008060008060c087890312156100f657600080fd5b863595506020870135945060408701359350606087013573ffffffffffffffffffffffffffffffffffffffff8116811461012f57600080fd5b92506080870135801515811461014457600080fd5b915060a087013567ffffffffffffffff8082111561016157600080fd5b818901915089601f83011261017557600080fd5b813581811115610187576101876100ae565b604051601f82017fffffffffffffffffffffffffffffffffffffffffffffffffffffffffffffffe0908116603f011681019083821181831017156101cd576101cd6100ae565b816040528281528c60208487010111156101e657600080fd5b826020860160208301376000602084830101528095505050505050929550929550929556fea264697066735822122062210d9e8316d79c3e1b478bbfa080659a8c14892577ea13753c7c3c8392ff7464736f6c63430008110033",
    "linkReferences": {}
  },
  "methodIdentifiers": {
    "callFunc()": "9a7846b9",
    "callFuncWithKeyValue()": "72057987",
    "someFuncWithManyInputs(uint256,uint256,uint256,address,bool,string)": "127b4e08"
  },
  "id": 8
}