{
  "abi": [
    {
      "inputs": [],
      "name": "MY_ADDRESS",
      "outputs": [
        {
          "internalType": "address",
          "name": "",
          "type": "address"
        }
      ],
      "stateMutability": "view",
      "type": "function"
    },
    {
      "inputs": [],
      "name": "MY_UINT",
      "outputs": [
        {
          "internalType": "uint256",
          "name": "",
          "type": "uint256"
        }
      ],
      "stateMutability": "view",
      "type": "function"
    }
  ],
  "bytecode": {
    "object": "0x6080604052348015600f57600080fd5b5060c58061001e6000396000f3fe6080604052348015600f57600080fd5b506004361060325760003560e01c80631f6649e31460375780633a756cec146051575b600080fd5b603e607b81565b6040519081526020015b60405180910390f35b606b73777788889999aaaabbbbccccddddeeeeffffcccc81565b60405173ffffffffffffffffffffffffffffffffffffffff9091168152602001604856fea2646970667358221220839b85a7dd336c1cd7f9191c4ddb9ff01de3cf5ea5886d6c84919f6e37afa00264736f6c63430008110033",
    "linkReferences": {}
  },
  "methodIdentifiers": {
    "MY_ADDRESS()": "3a756cec",
    "MY_UINT()": "1f6649e3"
  },
  "id": 2
}