{
  "abi": [
    {
      "inputs": [],
      "name": "num",
      "outputs": [
        {
          "internalType": "uint256",
          "name": "",
          "type": "uint256"
        }
      ],
      "stateMutability": "view",
      "type": "function"
    },
    {
      "inputs": [],
      "name": "sender",
      "outputs": [
        {
          "internalType": "address",
          "name": "",
          "type": "address"
        }
      ],
      "stateMutability": "view",
      "type": "function"
    },
    {
      "inputs": [
        {
          "internalType": "uint256",
          "name": "_num",
          "type": "uint256"
        }
      ],
      "name": "setVars",
      "outputs": [],
      "stateMutability": "payable",
      "type": "function"
    },
    {
      "inputs": [],
      "name": "value",
      "outputs": [
        {
          "internalType": "uint256",
          "name": "",
          "type": "uint256"
        }
      ],
      "stateMutability": "view",
      "type": "function"
    }
  ],
  "bytecode": {
    "object": "0x608060405234801561001057600080fd5b50610167806100206000396000f3fe60806040526004361061003f5760003560e01c80633fa4f245146100445780634e70b1dc1461006d5780636466414b1461008357806367e404ce146100c6575b600080fd5b34801561005057600080fd5b5061005a60025481565b6040519081526020015b60405180910390f35b34801561007957600080fd5b5061005a60005481565b6100c4610091366004610118565b600055600180547fffffffffffffffffffffffff0000000000000000000000000000000000000000163317905534600255565b005b3480156100d257600080fd5b506001546100f39073ffffffffffffffffffffffffffffffffffffffff1681565b60405173ffffffffffffffffffffffffffffffffffffffff9091168152602001610064565b60006020828403121561012a57600080fd5b503591905056fea264697066735822122033aa79d7c069d69c540c59715e79e3f41db518fe54015872486eccafac08f78864736f6c63430008110033",
    "linkReferences": {}
  },
  "methodIdentifiers": {
    "num()": "4e70b1dc",
    "sender()": "67e404ce",
    "setVars(uint256)": "6466414b",
    "value()": "3fa4f245"
  },
  "id": 5
}