{
  "abi": [
    {
      "anonymous": false,
      "inputs": [
        {
          "indexed": false,
          "internalType": "bool",
          "name": "success",
          "type": "bool"
        },
        {
          "indexed": false,
          "internalType": "bytes",
          "name": "data",
          "type": "bytes"
        }
      ],
      "name": "Response",
      "type": "event"
    },
    {
      "inputs": [
        {
          "internalType": "address",
          "name": "_addr",
          "type": "address"
        }
      ],
      "name": "testCallDoesNotExist",
      "outputs": [],
      "stateMutability": "nonpayable",
      "type": "function"
    },
    {
      "inputs": [
        {
          "internalType": "address payable",
          "name": "_addr",
          "type": "address"
        }
      ],
      "name": "testCallFoo",
      "outputs": [],
      "stateMutability": "payable",
      "type": "function"
    }
  ],
  "bytecode": {
    "object": "0x608060405234801561001057600080fd5b506103a4806100206000396000f3fe6080604052600436106100295760003560e01c806387ba61791461002e578063ff00726c14610043575b600080fd5b61004161003c3660046102b0565b610063565b005b34801561004f57600080fd5b5061004161005e3660046102b0565b6101d0565b604080516024810191909152600860648201527f63616c6c20666f6f0000000000000000000000000000000000000000000000006084820152607b6044820152600090819073ffffffffffffffffffffffffffffffffffffffff84169061138890349060a401604080517fffffffffffffffffffffffffffffffffffffffffffffffffffffffffffffffe08184030181529181526020820180517bffffffffffffffffffffffffffffffffffffffffffffffffffffffff167f24ccab8f000000000000000000000000000000000000000000000000000000001790525161014a91906102f8565b600060405180830381858888f193505050503d8060008114610188576040519150601f19603f3d011682016040523d82523d6000602084013e61018d565b606091505b50915091507f13848c3e38f8886f3f5d2ad9dff80d8092c2bbb8efd5b887a99c2c6cfc09ac2a82826040516101c3929190610314565b60405180910390a1505050565b60408051600481526024810182526020810180517bffffffffffffffffffffffffffffffffffffffffffffffffffffffff167f1dcc85ae000000000000000000000000000000000000000000000000000000001790529051600091829173ffffffffffffffffffffffffffffffffffffffff85169161024e916102f8565b6000604051808303816000865af19150503d8060008114610188576040519150601f19603f3d011682016040523d82523d6000602084013e61018d565b73ffffffffffffffffffffffffffffffffffffffff811681146102ad57600080fd5b50565b6000602082840312156102c257600080fd5b81356102cd8161028b565b9392505050565b60005b838110156102ef5781810151838201526020016102d7565b50506000910152565b6000825161030a8184602087016102d4565b9190910192915050565b8215158152604060208201526000825180604084015261033b8160608501602087016102d4565b601f017fffffffffffffffffffffffffffffffffffffffffffffffffffffffffffffffe01691909101606001939250505056fea2646970667358221220ee4c90e5a0c6f92a574b7db9da1b5ade9e2c8e663873e8930a7d472190ab331664736f6c63430008110033",
    "linkReferences": {}
  },
  "methodIdentifiers": {
    "testCallDoesNotExist(address)": "ff00726c",
    "testCallFoo(address)": "87ba6179"
  },
  "id": 1
}