{
  "abi": [
    {
      "inputs": [
        {
          "internalType": "uint256",
          "name": "",
          "type": "uint256"
        }
      ],
      "name": "arr",
      "outputs": [
        {
          "internalType": "uint256",
          "name": "",
          "type": "uint256"
        }
      ],
      "stateMutability": "view",
      "type": "function"
    },
    {
      "inputs": [],
      "name": "f",
      "outputs": [],
      "stateMutability": "nonpayable",
      "type": "function"
    },
    {
      "inputs": [
        {
          "internalType": "uint256[]",
          "name": "_arr",
          "type": "uint256[]"
        }
      ],
      "name": "g",
      "outputs": [
        {
          "internalType": "uint256[]",
          "name": "",
          "type": "uint256[]"
        }
      ],
      "stateMutability": "nonpayable",
      "type": "function"
    },
    {
      "inputs": [
        {
          "internalType": "uint256[]",
          "name": "_arr",
          "type": "uint256[]"
        }
      ],
      "name": "h",
      "outputs": [],
      "stateMutability": "nonpayable",
      "type": "function"
    }
  ],
  "bytecode": {
    "object": "0x608060405234801561001057600080fd5b506102fd806100206000396000f3fe608060405234801561001057600080fd5b506004361061004c5760003560e01c806326121ff01461005157806340dcbb081461007057806371e5ee5f14610082578063baf71609146100a8575b600080fd5b61006e600160009081526002602090815260408051918201905252565b005b61006e61007e3660046100ea565b5050565b61009561009036600461015f565b6100c9565b6040519081526020015b60405180910390f35b6100bc6100b63660046101a7565b50606090565b60405161009f9190610283565b600081815481106100d957600080fd5b600091825260209091200154905081565b600080602083850312156100fd57600080fd5b823567ffffffffffffffff8082111561011557600080fd5b818501915085601f83011261012957600080fd5b81358181111561013857600080fd5b8660208260051b850101111561014d57600080fd5b60209290920196919550909350505050565b60006020828403121561017157600080fd5b5035919050565b7f4e487b7100000000000000000000000000000000000000000000000000000000600052604160045260246000fd5b600060208083850312156101ba57600080fd5b823567ffffffffffffffff808211156101d257600080fd5b818501915085601f8301126101e657600080fd5b8135818111156101f8576101f8610178565b8060051b6040517fffffffffffffffffffffffffffffffffffffffffffffffffffffffffffffffe0603f8301168101818110858211171561023b5761023b610178565b60405291825284820192508381018501918883111561025957600080fd5b938501935b828510156102775784358452938501939285019261025e565b98975050505050505050565b6020808252825182820181905260009190848201906040850190845b818110156102bb5783518352928401929184019160010161029f565b5090969550505050505056fea26469706673582212209e05e63c284d8c333716034b9f12e7bd36bfba0ca1f1526274fc2721cc233d3f64736f6c63430008110033",
    "linkReferences": {}
  },
  "methodIdentifiers": {
    "arr(uint256)": "71e5ee5f",
    "f()": "26121ff0",
    "g(uint256[])": "baf71609",
    "h(uint256[])": "40dcbb08"
  },
  "id": 4
}