{
  "abi": [
    {
      "inputs": [
        {
          "internalType": "bytes32",
          "name": "_messageHash",
          "type": "bytes32"
        }
      ],
      "name": "getEthSignedMessageHash",
      "outputs": [
        {
          "internalType": "bytes32",
          "name": "",
          "type": "bytes32"
        }
      ],
      "stateMutability": "pure",
      "type": "function"
    },
    {
      "inputs": [
        {
          "internalType": "address",
          "name": "_to",
          "type": "address"
        },
        {
          "internalType": "uint256",
          "name": "_amount",
          "type": "uint256"
        },
        {
          "internalType": "string",
          "name": "_message",
          "type": "string"
        },
        {
          "internalType": "uint256",
          "name": "_nonce",
          "type": "uint256"
        }
      ],
      "name": "getMessageHash",
      "outputs": [
        {
          "internalType": "bytes32",
          "name": "",
          "type": "bytes32"
        }
      ],
      "stateMutability": "pure",
      "type": "function"
    },
    {
      "inputs": [
        {
          "internalType": "bytes32",
          "name": "_ethSignedMessageHash",
          "type": "bytes32"
        },
        {
          "internalType": "bytes",
          "name": "_signature",
          "type": "bytes"
        }
      ],
      "name": "recoverSigner",
      "outputs": [
        {
          "internalType": "address",
          "name": "",
          "type": "address"
        }
      ],
      "stateMutability": "pure",
      "type": "function"
    },
    {
      "inputs": [
        {
          "internalType": "bytes",
          "name": "sig",
          "type": "bytes"
        }
      ],
      "name": "splitSignature",
      "outputs": [
        {
          "internalType": "bytes32",
          "name": "r",
          "type": "bytes32"
        },
        {
          "internalType": "bytes32",
          "name": "s",
          "type": "bytes32"
        },
        {
          "internalType": "uint8",
          "name": "v",
          "type": "uint8"
        }
      ],
      "stateMutability": "pure",
      "type": "function"
    },
    {
      "inputs": [
        {
          "internalType": "address",
          "name": "_signer",
          "type": "address"
        },
        {
          "internalType": "address",
          "name": "_to",
          "type": "address"
        },
        {
          "internalType": "uint256",
          "name": "_amount",
          "type": "uint256"
        },
        {
          "internalType": "string",
          "name": "_message",
          "type": "string"
        },
        {
          "internalType": "uint256",
          "name": "_nonce",
          "type": "uint256"
        },
        {
          "internalType": "bytes",
          "name": "signature",
          "type": "bytes"
        }
      ],
      "name": "verify",
      "outputs": [
        {
          "internalType": "bool",
          "name": "",
          "type": "bool"
        }
      ],
      "stateMutability": "pure",
      "type": "function"
    }
  ],
  "bytecode": {
    "object": "0x608060405234801561001057600080fd5b506106cd806100206000396000f3fe608060405234801561001057600080fd5b50600436106100675760003560e01c8063a7bb580311610050578063a7bb5803146100ca578063abe5026a146100fb578063fa5408011461011e57600080fd5b806397aba7f91461006c578063a35f8a40146100a9575b600080fd5b61007f61007a366004610472565b61017f565b60405173ffffffffffffffffffffffffffffffffffffffff90911681526020015b60405180910390f35b6100bc6100b73660046104e2565b61021c565b6040519081526020016100a0565b6100dd6100d8366004610541565b610255565b60408051938452602084019290925260ff16908201526060016100a0565b61010e61010936600461057e565b6102e7565b60405190151581526020016100a0565b6100bc61012c366004610615565b6040517f19457468657265756d205369676e6564204d6573736167653a0a3332000000006020820152603c8101829052600090605c01604051602081830303815290604052805190602001209050919050565b60008060008061018e85610255565b6040805160008152602081018083528b905260ff8316918101919091526060810184905260808101839052929550909350915060019060a0016020604051602081039080840390855afa1580156101e9573d6000803e3d6000fd5b50506040517fffffffffffffffffffffffffffffffffffffffffffffffffffffffffffffffe00151979650505050505050565b600084848484604051602001610235949392919061062e565b604051602081830303815290604052805190602001209050949350505050565b600080600083516041146102c9576040517f08c379a000000000000000000000000000000000000000000000000000000000815260206004820152601860248201527f696e76616c6964207369676e6174757265206c656e6774680000000000000000604482015260640160405180910390fd5b50505060208101516040820151606090920151909260009190911a90565b6000806102f68787878761021c565b90506000610351826040517f19457468657265756d205369676e6564204d6573736167653a0a3332000000006020820152603c8101829052600090605c01604051602081830303815290604052805190602001209050919050565b90508873ffffffffffffffffffffffffffffffffffffffff16610374828661017f565b73ffffffffffffffffffffffffffffffffffffffff16149998505050505050505050565b7f4e487b7100000000000000000000000000000000000000000000000000000000600052604160045260246000fd5b600082601f8301126103d857600080fd5b813567ffffffffffffffff808211156103f3576103f3610398565b604051601f83017fffffffffffffffffffffffffffffffffffffffffffffffffffffffffffffffe0908116603f0116810190828211818310171561043957610439610398565b8160405283815286602085880101111561045257600080fd5b836020870160208301376000602085830101528094505050505092915050565b6000806040838503121561048557600080fd5b82359150602083013567ffffffffffffffff8111156104a357600080fd5b6104af858286016103c7565b9150509250929050565b803573ffffffffffffffffffffffffffffffffffffffff811681146104dd57600080fd5b919050565b600080600080608085870312156104f857600080fd5b610501856104b9565b935060208501359250604085013567ffffffffffffffff81111561052457600080fd5b610530878288016103c7565b949793965093946060013593505050565b60006020828403121561055357600080fd5b813567ffffffffffffffff81111561056a57600080fd5b610576848285016103c7565b949350505050565b60008060008060008060c0878903121561059757600080fd5b6105a0876104b9565b95506105ae602088016104b9565b945060408701359350606087013567ffffffffffffffff808211156105d257600080fd5b6105de8a838b016103c7565b94506080890135935060a08901359150808211156105fb57600080fd5b5061060889828a016103c7565b9150509295509295509295565b60006020828403121561062757600080fd5b5035919050565b7fffffffffffffffffffffffffffffffffffffffff0000000000000000000000008560601b1681528360148201526000835160005b818110156106805760208187018101516034868401015201610663565b50603492019182019290925260540194935050505056fea26469706673582212202cc2eea54c043967aed05d38184d00dac8d7d51c8476d61237eca5d687cf102a64736f6c63430008110033",
    "linkReferences": {}
  },
  "methodIdentifiers": {
    "getEthSignedMessageHash(bytes32)": "fa540801",
    "getMessageHash(address,uint256,string,uint256)": "a35f8a40",
    "recoverSigner(bytes32,bytes)": "97aba7f9",
    "splitSignature(bytes)": "a7bb5803",
    "verify(address,address,uint256,string,uint256,bytes)": "abe5026a"
  },
  "id": 23
}