{
  "abi": [
    {
      "inputs": [
        {
          "internalType": "uint256",
          "name": "_myUint",
          "type": "uint256"
        }
      ],
      "stateMutability": "nonpayable",
      "type": "constructor"
    },
    {
      "inputs": [],
      "name": "MY_ADDRESS",
      "outputs": [
        {
          "internalType": "address",
          "name": "",
          "type": "address"
        }
      ],
      "stateMutability": "view",
      "type": "function"
    },
    {
      "inputs": [],
      "name": "MY_UINT",
      "outputs": [
        {
          "internalType": "uint256",
          "name": "",
          "type": "uint256"
        }
      ],
      "stateMutability": "view",
      "type": "function"
    }
  ],
  "bytecode": {
    "object": "0x60c060405234801561001057600080fd5b5060405161016538038061016583398101604081905261002f9161003b565b3360805260a052610054565b60006020828403121561004d57600080fd5b5051919050565b60805160a05160f06100756000396000603b015260006074015260f06000f3fe6080604052348015600f57600080fd5b506004361060325760003560e01c80631f6649e31460375780633a756cec146070575b600080fd5b605d7f000000000000000000000000000000000000000000000000000000000000000081565b6040519081526020015b60405180910390f35b60967f000000000000000000000000000000000000000000000000000000000000000081565b60405173ffffffffffffffffffffffffffffffffffffffff9091168152602001606756fea2646970667358221220650a4bb977191261f5ab9a05b0fb509fcacf48079a5c837da3acb7f1703b6f1364736f6c63430008110033",
    "linkReferences": {}
  },
  "methodIdentifiers": {
    "MY_ADDRESS()": "3a756cec",
    "MY_UINT()": "1f6649e3"
  },
  "id": 10
}