{
  "abi": [
    {
      "inputs": [
        {
          "internalType": "bytes32[]",
          "name": "proof",
          "type": "bytes32[]"
        },
        {
          "internalType": "bytes32",
          "name": "root",
          "type": "bytes32"
        },
        {
          "internalType": "bytes32",
          "name": "leaf",
          "type": "bytes32"
        },
        {
          "internalType": "uint256",
          "name": "index",
          "type": "uint256"
        }
      ],
      "name": "verify",
      "outputs": [
        {
          "internalType": "bool",
          "name": "",
          "type": "bool"
        }
      ],
      "stateMutability": "pure",
      "type": "function"
    }
  ],
  "bytecode": {
    "object": "0x608060405234801561001057600080fd5b5061035e806100206000396000f3fe608060405234801561001057600080fd5b506004361061002b5760003560e01c806321fb335c14610030575b600080fd5b61004361003e366004610151565b610057565b604051901515815260200160405180910390f35b600082815b865181101561011657600087828151811061007957610079610243565b6020026020010151905060028561009091906102a1565b6000036100c85760408051602081018590529081018290526060016040516020818303038152906040528051906020012092506100f5565b60408051602081018390529081018490526060016040516020818303038152906040528051906020012092505b6101006002866102b5565b945050808061010e906102c9565b91505061005c565b50909314949350505050565b7f4e487b7100000000000000000000000000000000000000000000000000000000600052604160045260246000fd5b6000806000806080858703121561016757600080fd5b843567ffffffffffffffff8082111561017f57600080fd5b818701915087601f83011261019357600080fd5b81356020828211156101a7576101a7610122565b8160051b6040517fffffffffffffffffffffffffffffffffffffffffffffffffffffffffffffffe0603f830116810181811086821117156101ea576101ea610122565b60405292835281830193508481018201928b84111561020857600080fd5b948201945b838610156102265785358552948201949382019361020d565b9b918a01359a505060408901359860600135975095505050505050565b7f4e487b7100000000000000000000000000000000000000000000000000000000600052603260045260246000fd5b7f4e487b7100000000000000000000000000000000000000000000000000000000600052601260045260246000fd5b6000826102b0576102b0610272565b500690565b6000826102c4576102c4610272565b500490565b60007fffffffffffffffffffffffffffffffffffffffffffffffffffffffffffffffff8203610321577f4e487b7100000000000000000000000000000000000000000000000000000000600052601160045260246000fd5b506001019056fea26469706673582212207882e44a09cb646ad10bc6d1b8e7dd5a12e58356a7422bb7757f8e541675656864736f6c63430008110033",
    "linkReferences": {}
  },
  "methodIdentifiers": {
    "verify(bytes32[],bytes32,bytes32,uint256)": "21fb335c"
  },
  "id": 13
}